{
  "address": "0xCf7Ed3AccA5a467e9e704C703E8D87F634fB0Fc9",
  "abi": [
    {
      "inputs": [
        {
          "internalType": "address",
          "name": "vrfCoordinatorV2",
          "type": "address"
        },
        {
          "internalType": "uint256",
          "name": "entranceFee",
          "type": "uint256"
        },
        {
          "internalType": "bytes32",
          "name": "gasLane",
          "type": "bytes32"
        },
        {
          "internalType": "uint64",
          "name": "subscriptionId",
          "type": "uint64"
        },
        {
          "internalType": "uint32",
          "name": "callbackGasLimit",
          "type": "uint32"
        },
        {
          "internalType": "uint256",
          "name": "interval",
          "type": "uint256"
        }
      ],
      "stateMutability": "nonpayable",
      "type": "constructor"
    },
    {
      "inputs": [
        {
          "internalType": "address",
          "name": "have",
          "type": "address"
        },
        {
          "internalType": "address",
          "name": "want",
          "type": "address"
        }
      ],
      "name": "OnlyCoordinatorCanFulfill",
      "type": "error"
    },
    {
      "inputs": [],
      "name": "Raffle__NotEnoughETHEntered",
      "type": "error"
    },
    {
      "inputs": [],
      "name": "Raffle__NotOpen",
      "type": "error"
    },
    {
      "inputs": [],
      "name": "Raffle__TransferFailed",
      "type": "error"
    },
    {
      "inputs": [
        {
          "internalType": "uint256",
          "name": "currentBalance",
          "type": "uint256"
        },
        {
          "internalType": "uint256",
          "name": "numPlayers",
          "type": "uint256"
        },
        {
          "internalType": "uint256",
          "name": "raffleState",
          "type": "uint256"
        }
      ],
      "name": "Raffle__UpkeepNotNeeded",
      "type": "error"
    },
    {
      "anonymous": false,
      "inputs": [
        {
          "indexed": true,
          "internalType": "address",
          "name": "player",
          "type": "address"
        }
      ],
      "name": "RaffleEnter",
      "type": "event"
    },
    {
      "anonymous": false,
      "inputs": [
        {
          "indexed": true,
          "internalType": "uint256",
          "name": "requestId",
          "type": "uint256"
        }
      ],
      "name": "RequestedRaffleWinner",
      "type": "event"
    },
    {
      "anonymous": false,
      "inputs": [
        {
          "indexed": false,
          "internalType": "address",
          "name": "winner",
          "type": "address"
        }
      ],
      "name": "WinnerPicked",
      "type": "event"
    },
    {
      "inputs": [
        {
          "internalType": "bytes",
          "name": "",
          "type": "bytes"
        }
      ],
      "name": "checkUpkeep",
      "outputs": [
        {
          "internalType": "bool",
          "name": "upkeepNeeded",
          "type": "bool"
        },
        {
          "internalType": "bytes",
          "name": "",
          "type": "bytes"
        }
      ],
      "stateMutability": "nonpayable",
      "type": "function"
    },
    {
      "inputs": [],
      "name": "enterRaffle",
      "outputs": [],
      "stateMutability": "payable",
      "type": "function"
    },
    {
      "inputs": [],
      "name": "getEntranceFee",
      "outputs": [
        {
          "internalType": "uint256",
          "name": "",
          "type": "uint256"
        }
      ],
      "stateMutability": "view",
      "type": "function"
    },
    {
      "inputs": [],
      "name": "getInterval",
      "outputs": [
        {
          "internalType": "uint256",
          "name": "",
          "type": "uint256"
        }
      ],
      "stateMutability": "view",
      "type": "function"
    },
    {
      "inputs": [],
      "name": "getLastestTimestamp",
      "outputs": [
        {
          "internalType": "uint256",
          "name": "",
          "type": "uint256"
        }
      ],
      "stateMutability": "view",
      "type": "function"
    },
    {
      "inputs": [],
      "name": "getNumWords",
      "outputs": [
        {
          "internalType": "uint256",
          "name": "",
          "type": "uint256"
        }
      ],
      "stateMutability": "pure",
      "type": "function"
    },
    {
      "inputs": [],
      "name": "getNumberOfPlayers",
      "outputs": [
        {
          "internalType": "uint256",
          "name": "",
          "type": "uint256"
        }
      ],
      "stateMutability": "view",
      "type": "function"
    },
    {
      "inputs": [
        {
          "internalType": "uint256",
          "name": "index",
          "type": "uint256"
        }
      ],
      "name": "getPlayer",
      "outputs": [
        {
          "internalType": "address",
          "name": "",
          "type": "address"
        }
      ],
      "stateMutability": "view",
      "type": "function"
    },
    {
      "inputs": [],
      "name": "getRaffleState",
      "outputs": [
        {
          "internalType": "enum Raffle.RaffleState",
          "name": "",
          "type": "uint8"
        }
      ],
      "stateMutability": "view",
      "type": "function"
    },
    {
      "inputs": [],
      "name": "getRecentWinner",
      "outputs": [
        {
          "internalType": "address",
          "name": "",
          "type": "address"
        }
      ],
      "stateMutability": "view",
      "type": "function"
    },
    {
      "inputs": [],
      "name": "getRequestConfirmations",
      "outputs": [
        {
          "internalType": "uint256",
          "name": "",
          "type": "uint256"
        }
      ],
      "stateMutability": "pure",
      "type": "function"
    },
    {
      "inputs": [
        {
          "internalType": "bytes",
          "name": "",
          "type": "bytes"
        }
      ],
      "name": "performUpkeep",
      "outputs": [],
      "stateMutability": "nonpayable",
      "type": "function"
    },
    {
      "inputs": [
        {
          "internalType": "uint256",
          "name": "requestId",
          "type": "uint256"
        },
        {
          "internalType": "uint256[]",
          "name": "randomWords",
          "type": "uint256[]"
        }
      ],
      "name": "rawFulfillRandomWords",
      "outputs": [],
      "stateMutability": "nonpayable",
      "type": "function"
    }
  ],
  "transactionHash": "0xa29938415bf62bf152f47ab661a2754943fe5fac38427ace68034341e6479a32",
  "args": [
    "0x5FbDB2315678afecb367f032d93F642f64180aa3",
    "10000000000000000",
    "0x79d3d8832d904592c0bf9818b621522c988bb8b0c05cdc3b15aea1b6e8db0c15",
    "1",
    "500000",
    "30"
  ],
  "numDeployments": 1,
  "solcInputHash": "d0ac891a53333f061cf6f6245d132f6b",
  "bytecode": "0x6101606040523480156200001257600080fd5b5060405162001861380380620018618339818101604052810190620000389190620001ad565b858073ffffffffffffffffffffffffffffffffffffffff1660808173ffffffffffffffffffffffffffffffffffffffff1660601b81525050508460a081815250508573ffffffffffffffffffffffffffffffffffffffff1660c08173ffffffffffffffffffffffffffffffffffffffff1660601b815250508360e081815250508267ffffffffffffffff166101008167ffffffffffffffff1660c01b815250508163ffffffff166101208163ffffffff1660e01b815250506000600260146101000a81548160ff02191690836001811115620001195762000118620002b5565b5b0217905550426001819055508061014081815250505050505050506200036b565b6000815190506200014b81620002e9565b92915050565b600081519050620001628162000303565b92915050565b60008151905062000179816200031d565b92915050565b600081519050620001908162000337565b92915050565b600081519050620001a78162000351565b92915050565b60008060008060008060c08789031215620001cd57620001cc620002e4565b5b6000620001dd89828a016200013a565b9650506020620001f089828a0162000168565b95505060406200020389828a0162000151565b94505060606200021689828a0162000196565b93505060806200022989828a016200017f565b92505060a06200023c89828a0162000168565b9150509295509295509295565b6000620002568262000267565b9050919050565b6000819050919050565b600073ffffffffffffffffffffffffffffffffffffffff82169050919050565b6000819050919050565b600063ffffffff82169050919050565b600067ffffffffffffffff82169050919050565b7f4e487b7100000000000000000000000000000000000000000000000000000000600052602160045260246000fd5b600080fd5b620002f48162000249565b81146200030057600080fd5b50565b6200030e816200025d565b81146200031a57600080fd5b50565b620003288162000287565b81146200033457600080fd5b50565b620003428162000291565b81146200034e57600080fd5b50565b6200035c81620002a1565b81146200036857600080fd5b50565b60805160601c60a05160c05160601c60e0516101005160c01c6101205160e01c6101405161147a620003e7600039600081816107c0015261082e0152600061069c01526000610679015260006106580152600061061c0152600081816102fa01526103f7015260008181610337015261038b015261147a6000f3fe6080604052600436106100c25760003560e01c806353a2c19a1161007f57806391ad27b41161005957806391ad27b414610238578063e55ae4e814610263578063fa10c297146102a0578063fd6673f5146102cb576100c2565b806353a2c19a146101a45780635f1b0fd8146101cf5780636e04ff0d146101fa576100c2565b806309bc33a7146100c7578063115cbaf5146100f25780631fe543e31461011d5780632cfcc539146101465780634585e33b14610150578063473f1ddc14610179575b600080fd5b3480156100d357600080fd5b506100dc6102f6565b6040516100e9919061104a565b60405180910390f35b3480156100fe57600080fd5b5061010761031e565b604051610114919061102f565b60405180910390f35b34801561012957600080fd5b50610144600480360381019061013f9190610df9565b610335565b005b61014e6103f5565b005b34801561015c57600080fd5b5061017760048036038101906101729190610d09565b610564565b005b34801561018557600080fd5b5061018e610737565b60405161019b9190610f4d565b60405180910390f35b3480156101b057600080fd5b506101b9610761565b6040516101c6919061104a565b60405180910390f35b3480156101db57600080fd5b506101e4610770565b6040516101f1919061104a565b60405180910390f35b34801561020657600080fd5b50610221600480360381019061021c9190610d56565b61077d565b60405161022f929190610fac565b60405180910390f35b34801561024457600080fd5b5061024d61082a565b60405161025a919061104a565b60405180910390f35b34801561026f57600080fd5b5061028a60048036038101906102859190610d9f565b610852565b6040516102979190610f4d565b60405180910390f35b3480156102ac57600080fd5b506102b5610899565b6040516102c2919061104a565b60405180910390f35b3480156102d757600080fd5b506102e06108a3565b6040516102ed919061104a565b60405180910390f35b60007f0000000000000000000000000000000000000000000000000000000000000000905090565b6000600260149054906101000a900460ff16905090565b7f000000000000000000000000000000000000000000000000000000000000000073ffffffffffffffffffffffffffffffffffffffff163373ffffffffffffffffffffffffffffffffffffffff16146103e757337f00000000000000000000000000000000000000000000000000000000000000006040517f1cf993f40000000000000000000000000000000000000000000000000000000081526004016103de929190610f83565b60405180910390fd5b6103f182826108af565b5050565b7f000000000000000000000000000000000000000000000000000000000000000034101561044f576040517fbd4e069500000000000000000000000000000000000000000000000000000000815260040160405180910390fd5b600060018111156104635761046261135a565b5b600260149054906101000a900460ff1660018111156104855761048461135a565b5b146104bc576040517f1425571c00000000000000000000000000000000000000000000000000000000815260040160405180910390fd5b6000339080600181540180825580915050600190039060005260206000200160009091909190916101000a81548173ffffffffffffffffffffffffffffffffffffffff021916908373ffffffffffffffffffffffffffffffffffffffff1602179055503373ffffffffffffffffffffffffffffffffffffffff167f0805e1d667bddb8a95f0f09880cf94f403fb596ce79928d9f29b74203ba284d460405160405180910390a2565b600061057e6040518060200160405280600081525061077d565b509050806105ed5747600080549050600260149054906101000a900460ff1660018111156105af576105ae61135a565b5b6040517f584327aa0000000000000000000000000000000000000000000000000000000081526004016105e493929190611065565b60405180910390fd5b6001600260146101000a81548160ff021916908360018111156106135761061261135a565b5b021790555060007f000000000000000000000000000000000000000000000000000000000000000073ffffffffffffffffffffffffffffffffffffffff16635d3b1d307f00000000000000000000000000000000000000000000000000000000000000007f000000000000000000000000000000000000000000000000000000000000000060037f000000000000000000000000000000000000000000000000000000000000000060016040518663ffffffff1660e01b81526004016106dd959493929190610fdc565b602060405180830381600087803b1580156106f757600080fd5b505af115801561070b573d6000803e3d6000fd5b505050506040513d601f19601f8201168201806040525081019061072f9190610dcc565b905050505050565b6000600260009054906101000a900473ffffffffffffffffffffffffffffffffffffffff16905090565b6000600163ffffffff16905090565b6000600361ffff16905090565b600060606000600260149054906101000a900460ff1660018111156107a5576107a461135a565b5b600060018111156107b9576107b861135a565b5b14905060007f0000000000000000000000000000000000000000000000000000000000000000600154426107ed9190611145565b1190506000806000805490501190506000804711905083801561080d5750825b80156108165750815b801561081f5750805b955050505050915091565b60007f0000000000000000000000000000000000000000000000000000000000000000905090565b600080828154811061086757610866611389565b5b9060005260206000200160009054906101000a900473ffffffffffffffffffffffffffffffffffffffff169050919050565b6000600154905090565b60008080549050905090565b60008080549050826000815181106108ca576108c9611389565b5b60200260200101516108dc91906112cb565b905060008082815481106108f3576108f2611389565b5b9060005260206000200160009054906101000a900473ffffffffffffffffffffffffffffffffffffffff16905080600260006101000a81548173ffffffffffffffffffffffffffffffffffffffff021916908373ffffffffffffffffffffffffffffffffffffffff1602179055506000600260146101000a81548160ff021916908360018111156109875761098661135a565b5b0217905550600067ffffffffffffffff8111156109a7576109a66113b8565b5b6040519080825280602002602001820160405280156109d55781602001602082028036833780820191505090505b50600090805190602001906109eb929190610ad4565b504260018190555060008173ffffffffffffffffffffffffffffffffffffffff1647604051610a1990610f38565b60006040518083038185875af1925050503d8060008114610a56576040519150601f19603f3d011682016040523d82523d6000602084013e610a5b565b606091505b5050905080610a96576040517fa1d04b3900000000000000000000000000000000000000000000000000000000815260040160405180910390fd5b7f5b690ec4a06fe979403046eaeea5b3ce38524683c3001f662c8b5a829632f7df82604051610ac59190610f68565b60405180910390a15050505050565b828054828255906000526020600020908101928215610b4d579160200282015b82811115610b4c5782518260006101000a81548173ffffffffffffffffffffffffffffffffffffffff021916908373ffffffffffffffffffffffffffffffffffffffff16021790555091602001919060010190610af4565b5b509050610b5a9190610b5e565b5090565b5b80821115610b77576000816000905550600101610b5f565b5090565b6000610b8e610b89846110c1565b61109c565b90508083825260208201905082856020860282011115610bb157610bb06113f1565b5b60005b85811015610be15781610bc78882610cdf565b845260208401935060208301925050600181019050610bb4565b5050509392505050565b6000610bfe610bf9846110ed565b61109c565b905082815260208101848484011115610c1a57610c196113f6565b5b610c25848285611258565b509392505050565b600082601f830112610c4257610c416113ec565b5b8135610c52848260208601610b7b565b91505092915050565b60008083601f840112610c7157610c706113ec565b5b8235905067ffffffffffffffff811115610c8e57610c8d6113e7565b5b602083019150836001820283011115610caa57610ca96113f1565b5b9250929050565b600082601f830112610cc657610cc56113ec565b5b8135610cd6848260208601610beb565b91505092915050565b600081359050610cee8161142d565b92915050565b600081519050610d038161142d565b92915050565b60008060208385031215610d2057610d1f611400565b5b600083013567ffffffffffffffff811115610d3e57610d3d6113fb565b5b610d4a85828601610c5b565b92509250509250929050565b600060208284031215610d6c57610d6b611400565b5b600082013567ffffffffffffffff811115610d8a57610d896113fb565b5b610d9684828501610cb1565b91505092915050565b600060208284031215610db557610db4611400565b5b6000610dc384828501610cdf565b91505092915050565b600060208284031215610de257610de1611400565b5b6000610df084828501610cf4565b91505092915050565b60008060408385031215610e1057610e0f611400565b5b6000610e1e85828601610cdf565b925050602083013567ffffffffffffffff811115610e3f57610e3e6113fb565b5b610e4b85828601610c2d565b9150509250929050565b610e5e81611210565b82525050565b610e6d81611179565b82525050565b610e7c8161118b565b82525050565b610e8b81611197565b82525050565b6000610e9c8261111e565b610ea68185611129565b9350610eb6818560208601611267565b610ebf81611405565b840191505092915050565b610ed381611222565b82525050565b6000610ee660008361113a565b9150610ef182611416565b600082019050919050565b610f05816111b4565b82525050565b610f14816111e2565b82525050565b610f23816111ec565b82525050565b610f32816111fc565b82525050565b6000610f4382610ed9565b9150819050919050565b6000602082019050610f626000830184610e64565b92915050565b6000602082019050610f7d6000830184610e55565b92915050565b6000604082019050610f986000830185610e64565b610fa56020830184610e64565b9392505050565b6000604082019050610fc16000830185610e73565b8181036020830152610fd38184610e91565b90509392505050565b600060a082019050610ff16000830188610e82565b610ffe6020830187610f29565b61100b6040830186610efc565b6110186060830185610f1a565b6110256080830184610f1a565b9695505050505050565b60006020820190506110446000830184610eca565b92915050565b600060208201905061105f6000830184610f0b565b92915050565b600060608201905061107a6000830186610f0b565b6110876020830185610f0b565b6110946040830184610f0b565b949350505050565b60006110a66110b7565b90506110b2828261129a565b919050565b6000604051905090565b600067ffffffffffffffff8211156110dc576110db6113b8565b5b602082029050602081019050919050565b600067ffffffffffffffff821115611108576111076113b8565b5b61111182611405565b9050602081019050919050565b600081519050919050565b600082825260208201905092915050565b600081905092915050565b6000611150826111e2565b915061115b836111e2565b92508282101561116e5761116d6112fc565b5b828203905092915050565b6000611184826111c2565b9050919050565b60008115159050919050565b6000819050919050565b60008190506111af82611419565b919050565b600061ffff82169050919050565b600073ffffffffffffffffffffffffffffffffffffffff82169050919050565b6000819050919050565b600063ffffffff82169050919050565b600067ffffffffffffffff82169050919050565b600061121b82611234565b9050919050565b600061122d826111a1565b9050919050565b600061123f82611246565b9050919050565b6000611251826111c2565b9050919050565b82818337600083830152505050565b60005b8381101561128557808201518184015260208101905061126a565b83811115611294576000848401525b50505050565b6112a382611405565b810181811067ffffffffffffffff821117156112c2576112c16113b8565b5b80604052505050565b60006112d6826111e2565b91506112e1836111e2565b9250826112f1576112f061132b565b5b828206905092915050565b7f4e487b7100000000000000000000000000000000000000000000000000000000600052601160045260246000fd5b7f4e487b7100000000000000000000000000000000000000000000000000000000600052601260045260246000fd5b7f4e487b7100000000000000000000000000000000000000000000000000000000600052602160045260246000fd5b7f4e487b7100000000000000000000000000000000000000000000000000000000600052603260045260246000fd5b7f4e487b7100000000000000000000000000000000000000000000000000000000600052604160045260246000fd5b600080fd5b600080fd5b600080fd5b600080fd5b600080fd5b600080fd5b6000601f19601f8301169050919050565b50565b6002811061142a5761142961135a565b5b50565b611436816111e2565b811461144157600080fd5b5056fea2646970667358221220e24db24322ed26a61f07d0b83c3e55526447889f5bb8e76a0928d12233c97c1664736f6c63430008070033",
  "devdoc": {
    "author": "Patrick Collins / Przemysaw Welenc",
    "details": "This implements Chainlink VRF v2 and Chainlink keepers",
    "kind": "dev",
    "methods": {
      "checkUpkeep(bytes)": {
        "details": "This is the function that the Chainlink Keeper nodes call they look for the 'upkeepNeeded' to return true The following should be true in order to return true: 1. Our time interval should have passed 2. The lottery should have at least 1 player, and have some ETH 3. Our subscription is funded with LINK 4. The lottery should be in \"open\" state"
      }
    },
    "title": "A sample Raffle Contract",
    "version": 1
  },
  "userdoc": {
    "kind": "user",
    "methods": {},
    "notice": "This contract is for creating an untamperable decentralized smart contract",
    "version": 1
  },
  "storageLayout": {
    "storage": [
      {
        "astId": 1166,
        "contract": "contracts/Raffle.sol:Raffle",
        "label": "s_players",
        "offset": 0,
        "slot": "0",
        "type": "t_array(t_address_payable)dyn_storage"
      },
      {
        "astId": 1183,
        "contract": "contracts/Raffle.sol:Raffle",
        "label": "s_lastTimeStamp",
        "offset": 0,
        "slot": "1",
        "type": "t_uint256"
      },
      {
        "astId": 1185,
        "contract": "contracts/Raffle.sol:Raffle",
        "label": "s_recentWinner",
        "offset": 0,
        "slot": "2",
        "type": "t_address"
      },
      {
        "astId": 1188,
        "contract": "contracts/Raffle.sol:Raffle",
        "label": "s_raffleState",
        "offset": 20,
        "slot": "2",
        "type": "t_enum(RaffleState)1161"
      }
    ],
    "types": {
      "t_address": {
        "encoding": "inplace",
        "label": "address",
        "numberOfBytes": "20"
      },
      "t_address_payable": {
        "encoding": "inplace",
        "label": "address payable",
        "numberOfBytes": "20"
      },
      "t_array(t_address_payable)dyn_storage": {
        "base": "t_address_payable",
        "encoding": "dynamic_array",
        "label": "address payable[]",
        "numberOfBytes": "32"
      },
      "t_enum(RaffleState)1161": {
        "encoding": "inplace",
        "label": "enum Raffle.RaffleState",
        "numberOfBytes": "1"
      },
      "t_uint256": {
        "encoding": "inplace",
        "label": "uint256",
        "numberOfBytes": "32"
      }
    }
  }
}